{
    "_format": "hh-sol-artifact-1",
    "contractName": "MyEpicNFT",
    "sourceName": "contracts/MyEpicNFT.sol",
    "abi": [
        {
            "inputs": [],
            "stateMutability": "nonpayable",
            "type": "constructor"
        },
        {
            "anonymous": false,
            "inputs": [
                {
                    "indexed": true,
                    "internalType": "address",
                    "name": "owner",
                    "type": "address"
                },
                {
                    "indexed": true,
                    "internalType": "address",
                    "name": "approved",
                    "type": "address"
                },
                {
                    "indexed": true,
                    "internalType": "uint256",
                    "name": "tokenId",
                    "type": "uint256"
                }
            ],
            "name": "Approval",
            "type": "event"
        },
        {
            "anonymous": false,
            "inputs": [
                {
                    "indexed": true,
                    "internalType": "address",
                    "name": "owner",
                    "type": "address"
                },
                {
                    "indexed": true,
                    "internalType": "address",
                    "name": "operator",
                    "type": "address"
                },
                {
                    "indexed": false,
                    "internalType": "bool",
                    "name": "approved",
                    "type": "bool"
                }
            ],
            "name": "ApprovalForAll",
            "type": "event"
        },
        {
            "anonymous": false,
            "inputs": [
                {
                    "indexed": false,
                    "internalType": "address",
                    "name": "sender",
                    "type": "address"
                },
                {
                    "indexed": false,
                    "internalType": "uint256",
                    "name": "tokenId",
                    "type": "uint256"
                }
            ],
            "name": "NewEpicNFTMinted",
            "type": "event"
        },
        {
            "anonymous": false,
            "inputs": [
                {
                    "indexed": true,
                    "internalType": "address",
                    "name": "from",
                    "type": "address"
                },
                {
                    "indexed": true,
                    "internalType": "address",
                    "name": "to",
                    "type": "address"
                },
                {
                    "indexed": true,
                    "internalType": "uint256",
                    "name": "tokenId",
                    "type": "uint256"
                }
            ],
            "name": "Transfer",
            "type": "event"
        },
        {
            "inputs": [
                {
                    "internalType": "address",
                    "name": "to",
                    "type": "address"
                },
                {
                    "internalType": "uint256",
                    "name": "tokenId",
                    "type": "uint256"
                }
            ],
            "name": "approve",
            "outputs": [],
            "stateMutability": "nonpayable",
            "type": "function"
        },
        {
            "inputs": [
                {
                    "internalType": "address",
                    "name": "owner",
                    "type": "address"
                }
            ],
            "name": "balanceOf",
            "outputs": [
                {
                    "internalType": "uint256",
                    "name": "",
                    "type": "uint256"
                }
            ],
            "stateMutability": "view",
            "type": "function"
        },
        {
            "inputs": [
                {
                    "internalType": "uint256",
                    "name": "tokenId",
                    "type": "uint256"
                }
            ],
            "name": "getApproved",
            "outputs": [
                {
                    "internalType": "address",
                    "name": "",
                    "type": "address"
                }
            ],
            "stateMutability": "view",
            "type": "function"
        },
        {
            "inputs": [
                {
                    "internalType": "address",
                    "name": "owner",
                    "type": "address"
                },
                {
                    "internalType": "address",
                    "name": "operator",
                    "type": "address"
                }
            ],
            "name": "isApprovedForAll",
            "outputs": [
                {
                    "internalType": "bool",
                    "name": "",
                    "type": "bool"
                }
            ],
            "stateMutability": "view",
            "type": "function"
        },
        {
            "inputs": [],
            "name": "makeAnEpicNFT",
            "outputs": [],
            "stateMutability": "nonpayable",
            "type": "function"
        },
        {
            "inputs": [],
            "name": "name",
            "outputs": [
                {
                    "internalType": "string",
                    "name": "",
                    "type": "string"
                }
            ],
            "stateMutability": "view",
            "type": "function"
        },
        {
            "inputs": [
                {
                    "internalType": "uint256",
                    "name": "tokenId",
                    "type": "uint256"
                }
            ],
            "name": "ownerOf",
            "outputs": [
                {
                    "internalType": "address",
                    "name": "",
                    "type": "address"
                }
            ],
            "stateMutability": "view",
            "type": "function"
        },
        {
            "inputs": [
                {
                    "internalType": "string[]",
                    "name": "arr",
                    "type": "string[]"
                },
                {
                    "internalType": "uint256",
                    "name": "tokenId",
                    "type": "uint256"
                }
            ],
            "name": "pickRandomWord",
            "outputs": [
                {
                    "internalType": "string",
                    "name": "",
                    "type": "string"
                }
            ],
            "stateMutability": "pure",
            "type": "function"
        },
        {
            "inputs": [
                {
                    "internalType": "address",
                    "name": "from",
                    "type": "address"
                },
                {
                    "internalType": "address",
                    "name": "to",
                    "type": "address"
                },
                {
                    "internalType": "uint256",
                    "name": "tokenId",
                    "type": "uint256"
                }
            ],
            "name": "safeTransferFrom",
            "outputs": [],
            "stateMutability": "nonpayable",
            "type": "function"
        },
        {
            "inputs": [
                {
                    "internalType": "address",
                    "name": "from",
                    "type": "address"
                },
                {
                    "internalType": "address",
                    "name": "to",
                    "type": "address"
                },
                {
                    "internalType": "uint256",
                    "name": "tokenId",
                    "type": "uint256"
                },
                {
                    "internalType": "bytes",
                    "name": "_data",
                    "type": "bytes"
                }
            ],
            "name": "safeTransferFrom",
            "outputs": [],
            "stateMutability": "nonpayable",
            "type": "function"
        },
        {
            "inputs": [
                {
                    "internalType": "address",
                    "name": "operator",
                    "type": "address"
                },
                {
                    "internalType": "bool",
                    "name": "approved",
                    "type": "bool"
                }
            ],
            "name": "setApprovalForAll",
            "outputs": [],
            "stateMutability": "nonpayable",
            "type": "function"
        },
        {
            "inputs": [
                {
                    "internalType": "bytes4",
                    "name": "interfaceId",
                    "type": "bytes4"
                }
            ],
            "name": "supportsInterface",
            "outputs": [
                {
                    "internalType": "bool",
                    "name": "",
                    "type": "bool"
                }
            ],
            "stateMutability": "view",
            "type": "function"
        },
        {
            "inputs": [],
            "name": "symbol",
            "outputs": [
                {
                    "internalType": "string",
                    "name": "",
                    "type": "string"
                }
            ],
            "stateMutability": "view",
            "type": "function"
        },
        {
            "inputs": [
                {
                    "internalType": "uint256",
                    "name": "tokenId",
                    "type": "uint256"
                }
            ],
            "name": "tokenURI",
            "outputs": [
                {
                    "internalType": "string",
                    "name": "",
                    "type": "string"
                }
            ],
            "stateMutability": "view",
            "type": "function"
        },
        {
            "inputs": [
                {
                    "internalType": "address",
                    "name": "from",
                    "type": "address"
                },
                {
                    "internalType": "address",
                    "name": "to",
                    "type": "address"
                },
                {
                    "internalType": "uint256",
                    "name": "tokenId",
                    "type": "uint256"
                }
            ],
            "name": "transferFrom",
            "outputs": [],
            "stateMutability": "nonpayable",
            "type": "function"
        }
    ],
    "bytecode": "0x608060405260405180610160016040528061012f8152602001620046b361012f913960089080519060200190620000389291906200090a565b506040518061014001604052806040518060400160405280600581526020017f426173696300000000000000000000000000000000000000000000000000000081525081526020016040518060400160405280600781526020017f48756c6b696e670000000000000000000000000000000000000000000000000081525081526020016040518060400160405280600781526020017f53696e636572650000000000000000000000000000000000000000000000000081525081526020016040518060400160405280600681526020017f4e6172726f77000000000000000000000000000000000000000000000000000081525081526020016040518060400160405280600681526020017f53696c656e74000000000000000000000000000000000000000000000000000081525081526020016040518060400160405280600581526020017f4d61646c7900000000000000000000000000000000000000000000000000000081525081526020016040518060400160405280600881526020017f54726f75626c656400000000000000000000000000000000000000000000000081525081526020016040518060400160405280600b81526020017f43616c63756c6174696e6700000000000000000000000000000000000000000081525081526020016040518060400160405280600881526020017f48616e64736f6d6500000000000000000000000000000000000000000000000081525081526020016040518060400160405280600781526020017f4d61676963616c00000000000000000000000000000000000000000000000000815250815250600990600a620002a39291906200099b565b506040518061012001604052806040518060400160405280600981526020017f4f75746c696e696e67000000000000000000000000000000000000000000000081525081526020016040518060400160405280600981526020017f57616e646572696e67000000000000000000000000000000000000000000000081525081526020016040518060400160405280600a81526020017f417474656d7074696e670000000000000000000000000000000000000000000081525081526020016040518060400160405280600781526020017f4b697373696e670000000000000000000000000000000000000000000000000081525081526020016040518060400160405280600981526020017f41747461696e696e67000000000000000000000000000000000000000000000081525081526020016040518060400160405280600881526020017f537469636b696e6700000000000000000000000000000000000000000000000081525081526020016040518060400160405280600681526020017f476976696e67000000000000000000000000000000000000000000000000000081525081526020016040518060400160405280600981526020017f52656d61696e696e67000000000000000000000000000000000000000000000081525081526020016040518060400160405280600981526020017f537563656564696e670000000000000000000000000000000000000000000000815250815250600a906009620004d392919062000a02565b506040518061014001604052806040518060400160405280600981526020017f4b6e6f776c65646765000000000000000000000000000000000000000000000081525081526020016040518060400160405280600b81526020017f5265706c6163656d656e7400000000000000000000000000000000000000000081525081526020016040518060400160405280600581526020017f4368696c6400000000000000000000000000000000000000000000000000000081525081526020016040518060400160405280600781526020017f46756e6572616c0000000000000000000000000000000000000000000000000081525081526020016040518060400160405280600581526020017f547275746800000000000000000000000000000000000000000000000000000081525081526020016040518060400160405280600c81526020017f4f7267616e697a6174696f6e000000000000000000000000000000000000000081525081526020016040518060400160405280600381526020017f4d6170000000000000000000000000000000000000000000000000000000000081525081526020016040518060400160405280600581526020017f566964656f00000000000000000000000000000000000000000000000000000081525081526020016040518060400160405280600881526020017f5765616b6e65737300000000000000000000000000000000000000000000000081525081526020016040518060400160405280600981526020017f4a756467656d656e740000000000000000000000000000000000000000000000815250815250600b90600a6200073e9291906200099b565b503480156200074c57600080fd5b506040518060400160405280600e81526020017f52616e646f6d576f7264734e46540000000000000000000000000000000000008152506040518060400160405280600581526020017f52574e46540000000000000000000000000000000000000000000000000000008152508160009080519060200190620007d19291906200090a565b508060019080519060200190620007ea9291906200090a565b505050620008386040518060400160405280601881526020017f54686973206973206d79204e465420636f6e74726163742e00000000000000008152506200083e60201b62000ff31760201c565b62000c23565b620008de8160405160240162000855919062000b37565b6040516020818303038152906040527f41304fac000000000000000000000000000000000000000000000000000000007bffffffffffffffffffffffffffffffffffffffffffffffffffffffff19166020820180517bffffffffffffffffffffffffffffffffffffffffffffffffffffffff8381831617835250505050620008e160201b60201c565b50565b60008151905060006a636f6e736f6c652e6c6f679050602083016000808483855afa5050505050565b828054620009189062000bad565b90600052602060002090601f0160209004810192826200093c576000855562000988565b82601f106200095757805160ff191683800117855562000988565b8280016001018555821562000988579182015b82811115620009875782518255916020019190600101906200096a565b5b50905062000997919062000a69565b5090565b828054828255906000526020600020908101928215620009ef579160200282015b82811115620009ee578251829080519060200190620009dd9291906200090a565b5091602001919060010190620009bc565b5b509050620009fe919062000a88565b5090565b82805482825590600052602060002090810192821562000a56579160200282015b8281111562000a5557825182908051906020019062000a449291906200090a565b509160200191906001019062000a23565b5b50905062000a65919062000a88565b5090565b5b8082111562000a8457600081600090555060010162000a6a565b5090565b5b8082111562000aac576000818162000aa2919062000ab0565b5060010162000a89565b5090565b50805462000abe9062000bad565b6000825580601f1062000ad2575062000af3565b601f01602090049060005260206000209081019062000af2919062000a69565b5b50565b600062000b038262000b5b565b62000b0f818562000b66565b935062000b2181856020860162000b77565b62000b2c8162000c12565b840191505092915050565b6000602082019050818103600083015262000b53818462000af6565b905092915050565b600081519050919050565b600082825260208201905092915050565b60005b8381101562000b9757808201518184015260208101905062000b7a565b8381111562000ba7576000848401525b50505050565b6000600282049050600182168062000bc657607f821691505b6020821081141562000bdd5762000bdc62000be3565b5b50919050565b7f4e487b7100000000000000000000000000000000000000000000000000000000600052602260045260246000fd5b6000601f19601f8301169050919050565b613a808062000c336000396000f3fe608060405234801561001057600080fd5b50600436106100f55760003560e01c80636352211e11610097578063b88d4fde11610066578063b88d4fde14610296578063c87b56dd146102b2578063de9d132f146102e2578063e985e9c5146102ec576100f5565b80636352211e146101fc57806370a082311461022c57806395d89b411461025c578063a22cb4651461027a576100f5565b8063095ea7b3116100d3578063095ea7b31461017857806323b872dd1461019457806342842e0e146101b05780634ebb5e73146101cc576100f5565b806301ffc9a7146100fa57806306fdde031461012a578063081812fc14610148575b600080fd5b610114600480360381019061010f919061255f565b61031c565b6040516101219190612c3b565b60405180910390f35b6101326103fe565b60405161013f9190612c56565b60405180910390f35b610162600480360381019061015d91906125b1565b610490565b60405161016f9190612bab565b60405180910390f35b610192600480360381019061018d91906124cf565b610515565b005b6101ae60048036038101906101a991906123c9565b61062d565b005b6101ca60048036038101906101c591906123c9565b61068d565b005b6101e660048036038101906101e1919061250b565b6106ad565b6040516101f39190612c56565b60405180910390f35b610216600480360381019061021191906125b1565b61073c565b6040516102239190612bab565b60405180910390f35b61024660048036038101906102419190612364565b6107ee565b6040516102539190612eb6565b60405180910390f35b6102646108a6565b6040516102719190612c56565b60405180910390f35b610294600480360381019061028f9190612493565b610938565b005b6102b060048036038101906102ab9190612418565b61094e565b005b6102cc60048036038101906102c791906125b1565b6109b0565b6040516102d99190612c56565b60405180910390f35b6102ea610b02565b005b6103066004803603810190610301919061238d565b610f5f565b6040516103139190612c3b565b60405180910390f35b60007f80ac58cd000000000000000000000000000000000000000000000000000000007bffffffffffffffffffffffffffffffffffffffffffffffffffffffff1916827bffffffffffffffffffffffffffffffffffffffffffffffffffffffff191614806103e757507f5b5e139f000000000000000000000000000000000000000000000000000000007bffffffffffffffffffffffffffffffffffffffffffffffffffffffff1916827bffffffffffffffffffffffffffffffffffffffffffffffffffffffff1916145b806103f757506103f68261108c565b5b9050919050565b60606000805461040d906131a7565b80601f0160208091040260200160405190810160405280929190818152602001828054610439906131a7565b80156104865780601f1061045b57610100808354040283529160200191610486565b820191906000526020600020905b81548152906001019060200180831161046957829003601f168201915b5050505050905090565b600061049b826110f6565b6104da576040517f08c379a00000000000000000000000000000000000000000000000000000000081526004016104d190612e16565b60405180910390fd5b6004600083815260200190815260200160002060009054906101000a900473ffffffffffffffffffffffffffffffffffffffff169050919050565b60006105208261073c565b90508073ffffffffffffffffffffffffffffffffffffffff168373ffffffffffffffffffffffffffffffffffffffff161415610591576040517f08c379a000000000000000000000000000000000000000000000000000000000815260040161058890612e76565b60405180910390fd5b8073ffffffffffffffffffffffffffffffffffffffff166105b0611162565b73ffffffffffffffffffffffffffffffffffffffff1614806105df57506105de816105d9611162565b610f5f565b5b61061e576040517f08c379a000000000000000000000000000000000000000000000000000000000815260040161061590612d56565b60405180910390fd5b610628838361116a565b505050565b61063e610638611162565b82611223565b61067d576040517f08c379a000000000000000000000000000000000000000000000000000000000815260040161067490612e96565b60405180910390fd5b610688838383611301565b505050565b6106a88383836040518060200160405280600081525061094e565b505050565b606060006106e16106bd8461155d565b6040516020016106cd9190612b0c565b60405160208183030381529060405261170a565b90508351816106f09190613253565b905083818151811061072b577f4e487b7100000000000000000000000000000000000000000000000000000000600052603260045260246000fd5b602002602001015191505092915050565b6000806002600084815260200190815260200160002060009054906101000a900473ffffffffffffffffffffffffffffffffffffffff169050600073ffffffffffffffffffffffffffffffffffffffff168173ffffffffffffffffffffffffffffffffffffffff1614156107e5576040517f08c379a00000000000000000000000000000000000000000000000000000000081526004016107dc90612d96565b60405180910390fd5b80915050919050565b60008073ffffffffffffffffffffffffffffffffffffffff168273ffffffffffffffffffffffffffffffffffffffff16141561085f576040517f08c379a000000000000000000000000000000000000000000000000000000000815260040161085690612d76565b60405180910390fd5b600360008373ffffffffffffffffffffffffffffffffffffffff1673ffffffffffffffffffffffffffffffffffffffff168152602001908152602001600020549050919050565b6060600180546108b5906131a7565b80601f01602080910402602001604051908101604052809291908181526020018280546108e1906131a7565b801561092e5780601f106109035761010080835404028352916020019161092e565b820191906000526020600020905b81548152906001019060200180831161091157829003601f168201915b5050505050905090565b61094a610943611162565b838361173d565b5050565b61095f610959611162565b83611223565b61099e576040517f08c379a000000000000000000000000000000000000000000000000000000000815260040161099590612e96565b60405180910390fd5b6109aa848484846118aa565b50505050565b60606109bb826110f6565b6109fa576040517f08c379a00000000000000000000000000000000000000000000000000000000081526004016109f190612df6565b60405180910390fd5b6000600660008481526020019081526020016000208054610a1a906131a7565b80601f0160208091040260200160405190810160405280929190818152602001828054610a46906131a7565b8015610a935780601f10610a6857610100808354040283529160200191610a93565b820191906000526020600020905b815481529060010190602001808311610a7657829003601f168201915b505050505090506000610aa4611906565b9050600081511415610aba578192505050610afd565b600082511115610aef578082604051602001610ad7929190612a88565b60405160208183030381529060405292505050610afd565b610af88461191d565b925050505b919050565b6000610b0e60076119c4565b90506000610bed6009805480602002602001604051908101604052809291908181526020016000905b82821015610be3578382906000526020600020018054610b56906131a7565b80601f0160208091040260200160405190810160405280929190818152602001828054610b82906131a7565b8015610bcf5780601f10610ba457610100808354040283529160200191610bcf565b820191906000526020600020905b815481529060010190602001808311610bb257829003601f168201915b505050505081526020019060010190610b37565b50505050836106ad565b90506000610ccc600a805480602002602001604051908101604052809291908181526020016000905b82821015610cc2578382906000526020600020018054610c35906131a7565b80601f0160208091040260200160405190810160405280929190818152602001828054610c61906131a7565b8015610cae5780601f10610c8357610100808354040283529160200191610cae565b820191906000526020600020905b815481529060010190602001808311610c9157829003601f168201915b505050505081526020019060010190610c16565b50505050846106ad565b90506000610dab600b805480602002602001604051908101604052809291908181526020016000905b82821015610da1578382906000526020600020018054610d14906131a7565b80601f0160208091040260200160405190810160405280929190818152602001828054610d40906131a7565b8015610d8d5780601f10610d6257610100808354040283529160200191610d8d565b820191906000526020600020905b815481529060010190602001808311610d7057829003601f168201915b505050505081526020019060010190610cf5565b50505050856106ad565b90506000838383604051602001610dc493929190612aac565b60405160208183030381529060405290506000600882604051602001610deb929190612add565b60405160208183030381529060405290506000610e3083610e0b846119d2565b604051602001610e1c929190612b2e565b6040516020818303038152906040526119d2565b9050600081604051602001610e459190612b89565b6040516020818303038152906040529050610e946040518060400160405280600481526020017f0a2d2d2d00000000000000000000000000000000000000000000000000000000815250610ff3565b610e9d81610ff3565b610edb6040518060400160405280600481526020017f0a2d2d2d00000000000000000000000000000000000000000000000000000000815250610ff3565b610ee53389611b90565b610eef8882611bae565b610ef96007611c22565b610f1c6040518060600160405280602581526020016139e6602591398933611c38565b7febb98688741ffa4c7589bf325de30cf7becb63de567842e1ccdb6cb949fdc82c3389604051610f4d929190612c12565b60405180910390a15050505050505050565b6000600560008473ffffffffffffffffffffffffffffffffffffffff1673ffffffffffffffffffffffffffffffffffffffff16815260200190815260200160002060008373ffffffffffffffffffffffffffffffffffffffff1673ffffffffffffffffffffffffffffffffffffffff16815260200190815260200160002060009054906101000a900460ff16905092915050565b611089816040516024016110079190612c56565b6040516020818303038152906040527f41304fac000000000000000000000000000000000000000000000000000000007bffffffffffffffffffffffffffffffffffffffffffffffffffffffff19166020820180517bffffffffffffffffffffffffffffffffffffffffffffffffffffffff8381831617835250505050611cd7565b50565b60007f01ffc9a7000000000000000000000000000000000000000000000000000000007bffffffffffffffffffffffffffffffffffffffffffffffffffffffff1916827bffffffffffffffffffffffffffffffffffffffffffffffffffffffff1916149050919050565b60008073ffffffffffffffffffffffffffffffffffffffff166002600084815260200190815260200160002060009054906101000a900473ffffffffffffffffffffffffffffffffffffffff1673ffffffffffffffffffffffffffffffffffffffff1614159050919050565b600033905090565b816004600083815260200190815260200160002060006101000a81548173ffffffffffffffffffffffffffffffffffffffff021916908373ffffffffffffffffffffffffffffffffffffffff160217905550808273ffffffffffffffffffffffffffffffffffffffff166111dd8361073c565b73ffffffffffffffffffffffffffffffffffffffff167f8c5be1e5ebec7d5bd14f71427d1e84f3dd0314c0f7b2291e5b200ac8c7c3b92560405160405180910390a45050565b600061122e826110f6565b61126d576040517f08c379a000000000000000000000000000000000000000000000000000000000815260040161126490612d36565b60405180910390fd5b60006112788361073c565b90508073ffffffffffffffffffffffffffffffffffffffff168473ffffffffffffffffffffffffffffffffffffffff1614806112e757508373ffffffffffffffffffffffffffffffffffffffff166112cf84610490565b73ffffffffffffffffffffffffffffffffffffffff16145b806112f857506112f78185610f5f565b5b91505092915050565b8273ffffffffffffffffffffffffffffffffffffffff166113218261073c565b73ffffffffffffffffffffffffffffffffffffffff1614611377576040517f08c379a000000000000000000000000000000000000000000000000000000000815260040161136e90612e36565b60405180910390fd5b600073ffffffffffffffffffffffffffffffffffffffff168273ffffffffffffffffffffffffffffffffffffffff1614156113e7576040517f08c379a00000000000000000000000000000000000000000000000000000000081526004016113de90612cf6565b60405180910390fd5b6113f2838383611d00565b6113fd60008261116a565b6001600360008573ffffffffffffffffffffffffffffffffffffffff1673ffffffffffffffffffffffffffffffffffffffff168152602001908152602001600020600082825461144d91906130bd565b925050819055506001600360008473ffffffffffffffffffffffffffffffffffffffff1673ffffffffffffffffffffffffffffffffffffffff16815260200190815260200160002060008282546114a49190612fdc565b92505081905550816002600083815260200190815260200160002060006101000a81548173ffffffffffffffffffffffffffffffffffffffff021916908373ffffffffffffffffffffffffffffffffffffffff160217905550808273ffffffffffffffffffffffffffffffffffffffff168473ffffffffffffffffffffffffffffffffffffffff167fddf252ad1be2c89b69c2b068fc378daa952ba7f163c4a11628f55a4df523b3ef60405160405180910390a4505050565b606060008214156115a5576040518060400160405280600181526020017f30000000000000000000000000000000000000000000000000000000000000008152509050611705565b600082905060005b600082146115d75780806115c09061320a565b915050600a826115d09190613032565b91506115ad565b60008167ffffffffffffffff811115611619577f4e487b7100000000000000000000000000000000000000000000000000000000600052604160045260246000fd5b6040519080825280601f01601f19166020018201604052801561164b5781602001600182028036833780820191505090505b5090505b600085146116fe5760018261166491906130bd565b9150600a856116739190613253565b603061167f9190612fdc565b60f81b8183815181106116bb577f4e487b7100000000000000000000000000000000000000000000000000000000600052603260045260246000fd5b60200101907effffffffffffffffffffffffffffffffffffffffffffffffffffffffffffff1916908160001a905350600a856116f79190613032565b945061164f565b8093505050505b919050565b60008160405160200161171d9190612a71565b6040516020818303038152906040528051906020012060001c9050919050565b8173ffffffffffffffffffffffffffffffffffffffff168373ffffffffffffffffffffffffffffffffffffffff1614156117ac576040517f08c379a00000000000000000000000000000000000000000000000000000000081526004016117a390612d16565b60405180910390fd5b80600560008573ffffffffffffffffffffffffffffffffffffffff1673ffffffffffffffffffffffffffffffffffffffff16815260200190815260200160002060008473ffffffffffffffffffffffffffffffffffffffff1673ffffffffffffffffffffffffffffffffffffffff16815260200190815260200160002060006101000a81548160ff0219169083151502179055508173ffffffffffffffffffffffffffffffffffffffff168373ffffffffffffffffffffffffffffffffffffffff167f17307eab39ab6107e8899845ad3d59bd9653f200f220920489ca2b5937696c318360405161189d9190612c3b565b60405180910390a3505050565b6118b5848484611301565b6118c184848484611d05565b611900576040517f08c379a00000000000000000000000000000000000000000000000000000000081526004016118f790612cb6565b60405180910390fd5b50505050565b606060405180602001604052806000815250905090565b6060611928826110f6565b611967576040517f08c379a000000000000000000000000000000000000000000000000000000000815260040161195e90612e56565b60405180910390fd5b6000611971611906565b9050600081511161199157604051806020016040528060008152506119bc565b8061199b8461155d565b6040516020016119ac929190612a88565b6040516020818303038152906040525b915050919050565b600081600001549050919050565b606060008251905060008114156119fb5760405180602001604052806000815250915050611b8b565b60006003600283611a0c9190612fdc565b611a169190613032565b6004611a229190613063565b90506000602082611a339190612fdc565b67ffffffffffffffff811115611a72577f4e487b7100000000000000000000000000000000000000000000000000000000600052604160045260246000fd5b6040519080825280601f01601f191660200182016040528015611aa45781602001600182028036833780820191505090505b5090506000604051806060016040528060408152602001613a0b604091399050600181016020830160005b86811015611b485760038101905062ffffff818a015116603f8160121c168401518060081b905060ff603f83600c1c1686015116810190508060081b905060ff603f8360061c1686015116810190508060081b905060ff603f831686015116810190508060e01b90508084526004840193505050611acf565b506003860660018114611b625760028114611b7257611b7d565b613d3d60f01b6002830352611b7d565b603d60f81b60018303525b508484525050819450505050505b919050565b611baa828260405180602001604052806000815250611e9c565b5050565b611bb7826110f6565b611bf6576040517f08c379a0000000000000000000000000000000000000000000000000000000008152600401611bed90612db6565b60405180910390fd5b80600660008481526020019081526020016000209080519060200190611c1d9291906120d8565b505050565b6001816000016000828254019250508190555050565b611cd2838383604051602401611c5093929190612c78565b6040516020818303038152906040527fe3849f79000000000000000000000000000000000000000000000000000000007bffffffffffffffffffffffffffffffffffffffffffffffffffffffff19166020820180517bffffffffffffffffffffffffffffffffffffffffffffffffffffffff8381831617835250505050611cd7565b505050565b60008151905060006a636f6e736f6c652e6c6f679050602083016000808483855afa5050505050565b505050565b6000611d268473ffffffffffffffffffffffffffffffffffffffff16611ef7565b15611e8f578373ffffffffffffffffffffffffffffffffffffffff1663150b7a02611d4f611162565b8786866040518563ffffffff1660e01b8152600401611d719493929190612bc6565b602060405180830381600087803b158015611d8b57600080fd5b505af1925050508015611dbc57506040513d601f19601f82011682018060405250810190611db99190612588565b60015b611e3f573d8060008114611dec576040519150601f19603f3d011682016040523d82523d6000602084013e611df1565b606091505b50600081511415611e37576040517f08c379a0000000000000000000000000000000000000000000000000000000008152600401611e2e90612cb6565b60405180910390fd5b805181602001fd5b63150b7a0260e01b7bffffffffffffffffffffffffffffffffffffffffffffffffffffffff1916817bffffffffffffffffffffffffffffffffffffffffffffffffffffffff191614915050611e94565b600190505b949350505050565b611ea68383611f0a565b611eb36000848484611d05565b611ef2576040517f08c379a0000000000000000000000000000000000000000000000000000000008152600401611ee990612cb6565b60405180910390fd5b505050565b600080823b905060008111915050919050565b600073ffffffffffffffffffffffffffffffffffffffff168273ffffffffffffffffffffffffffffffffffffffff161415611f7a576040517f08c379a0000000000000000000000000000000000000000000000000000000008152600401611f7190612dd6565b60405180910390fd5b611f83816110f6565b15611fc3576040517f08c379a0000000000000000000000000000000000000000000000000000000008152600401611fba90612cd6565b60405180910390fd5b611fcf60008383611d00565b6001600360008473ffffffffffffffffffffffffffffffffffffffff1673ffffffffffffffffffffffffffffffffffffffff168152602001908152602001600020600082825461201f9190612fdc565b92505081905550816002600083815260200190815260200160002060006101000a81548173ffffffffffffffffffffffffffffffffffffffff021916908373ffffffffffffffffffffffffffffffffffffffff160217905550808273ffffffffffffffffffffffffffffffffffffffff16600073ffffffffffffffffffffffffffffffffffffffff167fddf252ad1be2c89b69c2b068fc378daa952ba7f163c4a11628f55a4df523b3ef60405160405180910390a45050565b8280546120e4906131a7565b90600052602060002090601f016020900481019282612106576000855561214d565b82601f1061211f57805160ff191683800117855561214d565b8280016001018555821561214d579182015b8281111561214c578251825591602001919060010190612131565b5b50905061215a919061215e565b5090565b5b8082111561217757600081600090555060010161215f565b5090565b600061218e61218984612ef6565b612ed1565b905080838252602082019050828560208602820111156121ad57600080fd5b60005b858110156121f757813567ffffffffffffffff8111156121cf57600080fd5b8086016121dc8982612325565b855260208501945060208401935050506001810190506121b0565b5050509392505050565b600061221461220f84612f22565b612ed1565b90508281526020810184848401111561222c57600080fd5b612237848285613165565b509392505050565b600061225261224d84612f53565b612ed1565b90508281526020810184848401111561226a57600080fd5b612275848285613165565b509392505050565b60008135905061228c81613989565b92915050565b600082601f8301126122a357600080fd5b81356122b384826020860161217b565b91505092915050565b6000813590506122cb816139a0565b92915050565b6000813590506122e0816139b7565b92915050565b6000815190506122f5816139b7565b92915050565b600082601f83011261230c57600080fd5b813561231c848260208601612201565b91505092915050565b600082601f83011261233657600080fd5b813561234684826020860161223f565b91505092915050565b60008135905061235e816139ce565b92915050565b60006020828403121561237657600080fd5b60006123848482850161227d565b91505092915050565b600080604083850312156123a057600080fd5b60006123ae8582860161227d565b92505060206123bf8582860161227d565b9150509250929050565b6000806000606084860312156123de57600080fd5b60006123ec8682870161227d565b93505060206123fd8682870161227d565b925050604061240e8682870161234f565b9150509250925092565b6000806000806080858703121561242e57600080fd5b600061243c8782880161227d565b945050602061244d8782880161227d565b935050604061245e8782880161234f565b925050606085013567ffffffffffffffff81111561247b57600080fd5b612487878288016122fb565b91505092959194509250565b600080604083850312156124a657600080fd5b60006124b48582860161227d565b92505060206124c5858286016122bc565b9150509250929050565b600080604083850312156124e257600080fd5b60006124f08582860161227d565b92505060206125018582860161234f565b9150509250929050565b6000806040838503121561251e57600080fd5b600083013567ffffffffffffffff81111561253857600080fd5b61254485828601612292565b92505060206125558582860161234f565b9150509250929050565b60006020828403121561257157600080fd5b600061257f848285016122d1565b91505092915050565b60006020828403121561259a57600080fd5b60006125a8848285016122e6565b91505092915050565b6000602082840312156125c357600080fd5b60006125d18482850161234f565b91505092915050565b6125e3816130f1565b82525050565b6125f281613103565b82525050565b600061260382612f99565b61260d8185612faf565b935061261d818560208601613174565b61262681613340565b840191505092915050565b600061263c82612fa4565b6126468185612fc0565b9350612656818560208601613174565b61265f81613340565b840191505092915050565b600061267582612fa4565b61267f8185612fd1565b935061268f818560208601613174565b80840191505092915050565b600081546126a8816131a7565b6126b28186612fd1565b945060018216600081146126cd57600181146126de57612711565b60ff19831686528186019350612711565b6126e785612f84565b60005b83811015612709578154818901526001820191506020810190506126ea565b838801955050505b50505092915050565b6000612727603283612fc0565b915061273282613351565b604082019050919050565b600061274a600283612fd1565b9150612755826133a0565b600282019050919050565b600061276d601c83612fc0565b9150612778826133c9565b602082019050919050565b6000612790602483612fc0565b915061279b826133f2565b604082019050919050565b60006127b3601983612fc0565b91506127be82613441565b602082019050919050565b60006127d6602c83612fc0565b91506127e18261346a565b604082019050919050565b60006127f9600d83612fd1565b9150612804826134b9565b600d82019050919050565b600061281c604483612fd1565b9150612827826134e2565b604482019050919050565b600061283f603883612fc0565b915061284a82613557565b604082019050919050565b6000612862602a83612fc0565b915061286d826135a6565b604082019050919050565b6000612885602983612fc0565b9150612890826135f5565b604082019050919050565b60006128a8602e83612fc0565b91506128b382613644565b604082019050919050565b60006128cb602483612fd1565b91506128d682613693565b602482019050919050565b60006128ee600c83612fd1565b91506128f9826136e2565b600c82019050919050565b6000612911600283612fd1565b915061291c8261370b565b600282019050919050565b6000612934602083612fc0565b915061293f82613734565b602082019050919050565b6000612957603183612fc0565b91506129628261375d565b604082019050919050565b600061297a602c83612fc0565b9150612985826137ac565b604082019050919050565b600061299d602983612fc0565b91506129a8826137fb565b604082019050919050565b60006129c0602f83612fc0565b91506129cb8261384a565b604082019050919050565b60006129e3600a83612fd1565b91506129ee82613899565b600a82019050919050565b6000612a06602183612fc0565b9150612a11826138c2565b604082019050919050565b6000612a29601d83612fd1565b9150612a3482613911565b601d82019050919050565b6000612a4c603183612fc0565b9150612a578261393a565b604082019050919050565b612a6b8161315b565b82525050565b6000612a7d828461266a565b915081905092915050565b6000612a94828561266a565b9150612aa0828461266a565b91508190509392505050565b6000612ab8828661266a565b9150612ac4828561266a565b9150612ad0828461266a565b9150819050949350505050565b6000612ae9828561269b565b9150612af5828461266a565b9150612b00826127ec565b91508190509392505050565b6000612b17826128e1565b9150612b23828461266a565b915081905092915050565b6000612b39826129d6565b9150612b45828561266a565b9150612b508261273d565b9150612b5b8261280f565b9150612b66826128be565b9150612b72828461266a565b9150612b7d82612904565b91508190509392505050565b6000612b9482612a1c565b9150612ba0828461266a565b915081905092915050565b6000602082019050612bc060008301846125da565b92915050565b6000608082019050612bdb60008301876125da565b612be860208301866125da565b612bf56040830185612a62565b8181036060830152612c0781846125f8565b905095945050505050565b6000604082019050612c2760008301856125da565b612c346020830184612a62565b9392505050565b6000602082019050612c5060008301846125e9565b92915050565b60006020820190508181036000830152612c708184612631565b905092915050565b60006060820190508181036000830152612c928186612631565b9050612ca16020830185612a62565b612cae60408301846125da565b949350505050565b60006020820190508181036000830152612ccf8161271a565b9050919050565b60006020820190508181036000830152612cef81612760565b9050919050565b60006020820190508181036000830152612d0f81612783565b9050919050565b60006020820190508181036000830152612d2f816127a6565b9050919050565b60006020820190508181036000830152612d4f816127c9565b9050919050565b60006020820190508181036000830152612d6f81612832565b9050919050565b60006020820190508181036000830152612d8f81612855565b9050919050565b60006020820190508181036000830152612daf81612878565b9050919050565b60006020820190508181036000830152612dcf8161289b565b9050919050565b60006020820190508181036000830152612def81612927565b9050919050565b60006020820190508181036000830152612e0f8161294a565b9050919050565b60006020820190508181036000830152612e2f8161296d565b9050919050565b60006020820190508181036000830152612e4f81612990565b9050919050565b60006020820190508181036000830152612e6f816129b3565b9050919050565b60006020820190508181036000830152612e8f816129f9565b9050919050565b60006020820190508181036000830152612eaf81612a3f565b9050919050565b6000602082019050612ecb6000830184612a62565b92915050565b6000612edb612eec565b9050612ee782826131d9565b919050565b6000604051905090565b600067ffffffffffffffff821115612f1157612f10613311565b5b602082029050602081019050919050565b600067ffffffffffffffff821115612f3d57612f3c613311565b5b612f4682613340565b9050602081019050919050565b600067ffffffffffffffff821115612f6e57612f6d613311565b5b612f7782613340565b9050602081019050919050565b60008190508160005260206000209050919050565b600081519050919050565b600081519050919050565b600082825260208201905092915050565b600082825260208201905092915050565b600081905092915050565b6000612fe78261315b565b9150612ff28361315b565b9250827fffffffffffffffffffffffffffffffffffffffffffffffffffffffffffffffff0382111561302757613026613284565b5b828201905092915050565b600061303d8261315b565b91506130488361315b565b925082613058576130576132b3565b5b828204905092915050565b600061306e8261315b565b91506130798361315b565b9250817fffffffffffffffffffffffffffffffffffffffffffffffffffffffffffffffff04831182151516156130b2576130b1613284565b5b828202905092915050565b60006130c88261315b565b91506130d38361315b565b9250828210156130e6576130e5613284565b5b828203905092915050565b60006130fc8261313b565b9050919050565b60008115159050919050565b60007fffffffff0000000000000000000000000000000000000000000000000000000082169050919050565b600073ffffffffffffffffffffffffffffffffffffffff82169050919050565b6000819050919050565b82818337600083830152505050565b60005b83811015613192578082015181840152602081019050613177565b838111156131a1576000848401525b50505050565b600060028204905060018216806131bf57607f821691505b602082108114156131d3576131d26132e2565b5b50919050565b6131e282613340565b810181811067ffffffffffffffff8211171561320157613200613311565b5b80604052505050565b60006132158261315b565b91507fffffffffffffffffffffffffffffffffffffffffffffffffffffffffffffffff82141561324857613247613284565b5b600182019050919050565b600061325e8261315b565b91506132698361315b565b925082613279576132786132b3565b5b828206905092915050565b7f4e487b7100000000000000000000000000000000000000000000000000000000600052601160045260246000fd5b7f4e487b7100000000000000000000000000000000000000000000000000000000600052601260045260246000fd5b7f4e487b7100000000000000000000000000000000000000000000000000000000600052602260045260246000fd5b7f4e487b7100000000000000000000000000000000000000000000000000000000600052604160045260246000fd5b6000601f19601f8301169050919050565b7f4552433732313a207472616e7366657220746f206e6f6e20455243373231526560008201527f63656976657220696d706c656d656e7465720000000000000000000000000000602082015250565b7f222c000000000000000000000000000000000000000000000000000000000000600082015250565b7f4552433732313a20746f6b656e20616c7265616479206d696e74656400000000600082015250565b7f4552433732313a207472616e7366657220746f20746865207a65726f2061646460008201527f7265737300000000000000000000000000000000000000000000000000000000602082015250565b7f4552433732313a20617070726f766520746f2063616c6c657200000000000000600082015250565b7f4552433732313a206f70657261746f7220717565727920666f72206e6f6e657860008201527f697374656e7420746f6b656e0000000000000000000000000000000000000000602082015250565b7f3c2f746578743e3c2f7376673e00000000000000000000000000000000000000600082015250565b7f226465736372697074696f6e223a20224120686967686c79207363616c61626c60008201527f6520636f6c6c656374696f6e73206f662072616e646f6d20776f726473206e6660208201527f742e222c00000000000000000000000000000000000000000000000000000000604082015250565b7f4552433732313a20617070726f76652063616c6c6572206973206e6f74206f7760008201527f6e6572206e6f7220617070726f76656420666f7220616c6c0000000000000000602082015250565b7f4552433732313a2062616c616e636520717565727920666f7220746865207a6560008201527f726f206164647265737300000000000000000000000000000000000000000000602082015250565b7f4552433732313a206f776e657220717565727920666f72206e6f6e657869737460008201527f656e7420746f6b656e0000000000000000000000000000000000000000000000602082015250565b7f45524337323155524953746f726167653a2055524920736574206f66206e6f6e60008201527f6578697374656e7420746f6b656e000000000000000000000000000000000000602082015250565b7f22696d616765223a2022646174613a696d6167652f7376672b786d6c3b62617360008201527f6536342c00000000000000000000000000000000000000000000000000000000602082015250565b7f574f5244494e47534c4953540000000000000000000000000000000000000000600082015250565b7f227d000000000000000000000000000000000000000000000000000000000000600082015250565b7f4552433732313a206d696e7420746f20746865207a65726f2061646472657373600082015250565b7f45524337323155524953746f726167653a2055524920717565727920666f722060008201527f6e6f6e6578697374656e7420746f6b656e000000000000000000000000000000602082015250565b7f4552433732313a20617070726f76656420717565727920666f72206e6f6e657860008201527f697374656e7420746f6b656e0000000000000000000000000000000000000000602082015250565b7f4552433732313a207472616e73666572206f6620746f6b656e2074686174206960008201527f73206e6f74206f776e0000000000000000000000000000000000000000000000602082015250565b7f4552433732314d657461646174613a2055524920717565727920666f72206e6f60008201527f6e6578697374656e7420746f6b656e0000000000000000000000000000000000602082015250565b7f7b226e616d65223a202200000000000000000000000000000000000000000000600082015250565b7f4552433732313a20617070726f76616c20746f2063757272656e74206f776e6560008201527f7200000000000000000000000000000000000000000000000000000000000000602082015250565b7f646174613a6170706c69636174696f6e2f6a736f6e3b6261736536342c000000600082015250565b7f4552433732313a207472616e736665722063616c6c6572206973206e6f74206f60008201527f776e6572206e6f7220617070726f766564000000000000000000000000000000602082015250565b613992816130f1565b811461399d57600080fd5b50565b6139a981613103565b81146139b457600080fd5b50565b6139c08161310f565b81146139cb57600080fd5b50565b6139d78161315b565b81146139e257600080fd5b5056fe416e204e465420772f20494420257320686173206265656e206d696e74656420746f2025734142434445464748494a4b4c4d4e4f505152535455565758595a6162636465666768696a6b6c6d6e6f707172737475767778797a303132333435363738392b2fa26469706673582212200d27507fb7db891f920107b855a6b44ab9422ff0eb0c5d848dcd51a82620020264736f6c634300080400333c73766720786d6c6e733d27687474703a2f2f7777772e77332e6f72672f323030302f73766727207072657365727665417370656374526174696f3d27784d696e594d696e206d656574272076696577426f783d273020302033353020333530273e3c7374796c653e2e62617365207b2066696c6c3a2077686974653b20666f6e742d66616d696c793a2073657269663b20666f6e742d73697a653a20323470783b207d3c2f7374796c653e3c726563742077696474683d273130302527206865696768743d2731303025272066696c6c3d27626c61636b27202f3e3c7465787420783d273530252720793d273530252720636c6173733d27626173652720646f6d696e616e742d626173656c696e653d276d6964646c652720746578742d616e63686f723d276d6964646c65273e",
    "linkReferences": {},
    "deployedLinkReferences": {}
}