{
    "_format": "hh-sol-artifact-1",
    "contractName": "MyEpicNFT",
    "sourceName": "contracts/MyEpicNFT.sol",
    "abi": [
        {
            "inputs": [],
            "stateMutability": "nonpayable",
            "type": "constructor"
        },
        {
            "anonymous": false,
            "inputs": [
                {
                    "indexed": true,
                    "internalType": "address",
                    "name": "owner",
                    "type": "address"
                },
                {
                    "indexed": true,
                    "internalType": "address",
                    "name": "approved",
                    "type": "address"
                },
                {
                    "indexed": true,
                    "internalType": "uint256",
                    "name": "tokenId",
                    "type": "uint256"
                }
            ],
            "name": "Approval",
            "type": "event"
        },
        {
            "anonymous": false,
            "inputs": [
                {
                    "indexed": true,
                    "internalType": "address",
                    "name": "owner",
                    "type": "address"
                },
                {
                    "indexed": true,
                    "internalType": "address",
                    "name": "operator",
                    "type": "address"
                },
                {
                    "indexed": false,
                    "internalType": "bool",
                    "name": "approved",
                    "type": "bool"
                }
            ],
            "name": "ApprovalForAll",
            "type": "event"
        },
        {
            "anonymous": false,
            "inputs": [
                {
                    "indexed": true,
                    "internalType": "address",
                    "name": "from",
                    "type": "address"
                },
                {
                    "indexed": true,
                    "internalType": "address",
                    "name": "to",
                    "type": "address"
                },
                {
                    "indexed": true,
                    "internalType": "uint256",
                    "name": "tokenId",
                    "type": "uint256"
                }
            ],
            "name": "Transfer",
            "type": "event"
        },
        {
            "inputs": [
                {
                    "internalType": "address",
                    "name": "to",
                    "type": "address"
                },
                {
                    "internalType": "uint256",
                    "name": "tokenId",
                    "type": "uint256"
                }
            ],
            "name": "approve",
            "outputs": [],
            "stateMutability": "nonpayable",
            "type": "function"
        },
        {
            "inputs": [
                {
                    "internalType": "address",
                    "name": "owner",
                    "type": "address"
                }
            ],
            "name": "balanceOf",
            "outputs": [
                {
                    "internalType": "uint256",
                    "name": "",
                    "type": "uint256"
                }
            ],
            "stateMutability": "view",
            "type": "function"
        },
        {
            "inputs": [
                {
                    "internalType": "uint256",
                    "name": "tokenId",
                    "type": "uint256"
                }
            ],
            "name": "getApproved",
            "outputs": [
                {
                    "internalType": "address",
                    "name": "",
                    "type": "address"
                }
            ],
            "stateMutability": "view",
            "type": "function"
        },
        {
            "inputs": [
                {
                    "internalType": "address",
                    "name": "owner",
                    "type": "address"
                },
                {
                    "internalType": "address",
                    "name": "operator",
                    "type": "address"
                }
            ],
            "name": "isApprovedForAll",
            "outputs": [
                {
                    "internalType": "bool",
                    "name": "",
                    "type": "bool"
                }
            ],
            "stateMutability": "view",
            "type": "function"
        },
        {
            "inputs": [],
            "name": "makeAnEpicNFT",
            "outputs": [],
            "stateMutability": "nonpayable",
            "type": "function"
        },
        {
            "inputs": [],
            "name": "name",
            "outputs": [
                {
                    "internalType": "string",
                    "name": "",
                    "type": "string"
                }
            ],
            "stateMutability": "view",
            "type": "function"
        },
        {
            "inputs": [
                {
                    "internalType": "uint256",
                    "name": "tokenId",
                    "type": "uint256"
                }
            ],
            "name": "ownerOf",
            "outputs": [
                {
                    "internalType": "address",
                    "name": "",
                    "type": "address"
                }
            ],
            "stateMutability": "view",
            "type": "function"
        },
        {
            "inputs": [
                {
                    "internalType": "string[]",
                    "name": "arr",
                    "type": "string[]"
                },
                {
                    "internalType": "uint256",
                    "name": "tokenId",
                    "type": "uint256"
                }
            ],
            "name": "pickRandomWord",
            "outputs": [
                {
                    "internalType": "string",
                    "name": "",
                    "type": "string"
                }
            ],
            "stateMutability": "pure",
            "type": "function"
        },
        {
            "inputs": [
                {
                    "internalType": "address",
                    "name": "from",
                    "type": "address"
                },
                {
                    "internalType": "address",
                    "name": "to",
                    "type": "address"
                },
                {
                    "internalType": "uint256",
                    "name": "tokenId",
                    "type": "uint256"
                }
            ],
            "name": "safeTransferFrom",
            "outputs": [],
            "stateMutability": "nonpayable",
            "type": "function"
        },
        {
            "inputs": [
                {
                    "internalType": "address",
                    "name": "from",
                    "type": "address"
                },
                {
                    "internalType": "address",
                    "name": "to",
                    "type": "address"
                },
                {
                    "internalType": "uint256",
                    "name": "tokenId",
                    "type": "uint256"
                },
                {
                    "internalType": "bytes",
                    "name": "_data",
                    "type": "bytes"
                }
            ],
            "name": "safeTransferFrom",
            "outputs": [],
            "stateMutability": "nonpayable",
            "type": "function"
        },
        {
            "inputs": [
                {
                    "internalType": "address",
                    "name": "operator",
                    "type": "address"
                },
                {
                    "internalType": "bool",
                    "name": "approved",
                    "type": "bool"
                }
            ],
            "name": "setApprovalForAll",
            "outputs": [],
            "stateMutability": "nonpayable",
            "type": "function"
        },
        {
            "inputs": [
                {
                    "internalType": "bytes4",
                    "name": "interfaceId",
                    "type": "bytes4"
                }
            ],
            "name": "supportsInterface",
            "outputs": [
                {
                    "internalType": "bool",
                    "name": "",
                    "type": "bool"
                }
            ],
            "stateMutability": "view",
            "type": "function"
        },
        {
            "inputs": [],
            "name": "symbol",
            "outputs": [
                {
                    "internalType": "string",
                    "name": "",
                    "type": "string"
                }
            ],
            "stateMutability": "view",
            "type": "function"
        },
        {
            "inputs": [
                {
                    "internalType": "uint256",
                    "name": "tokenId",
                    "type": "uint256"
                }
            ],
            "name": "tokenURI",
            "outputs": [
                {
                    "internalType": "string",
                    "name": "",
                    "type": "string"
                }
            ],
            "stateMutability": "view",
            "type": "function"
        },
        {
            "inputs": [
                {
                    "internalType": "address",
                    "name": "from",
                    "type": "address"
                },
                {
                    "internalType": "address",
                    "name": "to",
                    "type": "address"
                },
                {
                    "internalType": "uint256",
                    "name": "tokenId",
                    "type": "uint256"
                }
            ],
            "name": "transferFrom",
            "outputs": [],
            "stateMutability": "nonpayable",
            "type": "function"
        }
    ],
    "bytecode": "0x608060405260405180610160016040528061012f81526020016200465161012f913960089080519060200190620000389291906200090a565b506040518061014001604052806040518060400160405280600581526020017f426173696300000000000000000000000000000000000000000000000000000081525081526020016040518060400160405280600781526020017f48756c6b696e670000000000000000000000000000000000000000000000000081525081526020016040518060400160405280600781526020017f53696e636572650000000000000000000000000000000000000000000000000081525081526020016040518060400160405280600681526020017f4e6172726f77000000000000000000000000000000000000000000000000000081525081526020016040518060400160405280600681526020017f53696c656e74000000000000000000000000000000000000000000000000000081525081526020016040518060400160405280600581526020017f4d61646c7900000000000000000000000000000000000000000000000000000081525081526020016040518060400160405280600881526020017f54726f75626c656400000000000000000000000000000000000000000000000081525081526020016040518060400160405280600b81526020017f43616c63756c6174696e6700000000000000000000000000000000000000000081525081526020016040518060400160405280600881526020017f48616e64736f6d6500000000000000000000000000000000000000000000000081525081526020016040518060400160405280600781526020017f4d61676963616c00000000000000000000000000000000000000000000000000815250815250600990600a620002a39291906200099b565b506040518061012001604052806040518060400160405280600981526020017f4f75746c696e696e67000000000000000000000000000000000000000000000081525081526020016040518060400160405280600981526020017f57616e646572696e67000000000000000000000000000000000000000000000081525081526020016040518060400160405280600a81526020017f417474656d7074696e670000000000000000000000000000000000000000000081525081526020016040518060400160405280600781526020017f4b697373696e670000000000000000000000000000000000000000000000000081525081526020016040518060400160405280600981526020017f41747461696e696e67000000000000000000000000000000000000000000000081525081526020016040518060400160405280600881526020017f537469636b696e6700000000000000000000000000000000000000000000000081525081526020016040518060400160405280600681526020017f476976696e67000000000000000000000000000000000000000000000000000081525081526020016040518060400160405280600981526020017f52656d61696e696e67000000000000000000000000000000000000000000000081525081526020016040518060400160405280600981526020017f537563656564696e670000000000000000000000000000000000000000000000815250815250600a906009620004d392919062000a02565b506040518061014001604052806040518060400160405280600981526020017f4b6e6f776c65646765000000000000000000000000000000000000000000000081525081526020016040518060400160405280600b81526020017f5265706c6163656d656e7400000000000000000000000000000000000000000081525081526020016040518060400160405280600581526020017f4368696c6400000000000000000000000000000000000000000000000000000081525081526020016040518060400160405280600781526020017f46756e6572616c0000000000000000000000000000000000000000000000000081525081526020016040518060400160405280600581526020017f547275746800000000000000000000000000000000000000000000000000000081525081526020016040518060400160405280600c81526020017f4f7267616e697a6174696f6e000000000000000000000000000000000000000081525081526020016040518060400160405280600381526020017f4d6170000000000000000000000000000000000000000000000000000000000081525081526020016040518060400160405280600581526020017f566964656f00000000000000000000000000000000000000000000000000000081525081526020016040518060400160405280600881526020017f5765616b6e65737300000000000000000000000000000000000000000000000081525081526020016040518060400160405280600981526020017f4a756467656d656e740000000000000000000000000000000000000000000000815250815250600b90600a6200073e9291906200099b565b503480156200074c57600080fd5b506040518060400160405280600e81526020017f52616e646f6d576f7264734e46540000000000000000000000000000000000008152506040518060400160405280600581526020017f52574e46540000000000000000000000000000000000000000000000000000008152508160009080519060200190620007d19291906200090a565b508060019080519060200190620007ea9291906200090a565b505050620008386040518060400160405280601881526020017f54686973206973206d79204e465420636f6e74726163742e00000000000000008152506200083e60201b62000fba1760201c565b62000c23565b620008de8160405160240162000855919062000b37565b6040516020818303038152906040527f41304fac000000000000000000000000000000000000000000000000000000007bffffffffffffffffffffffffffffffffffffffffffffffffffffffff19166020820180517bffffffffffffffffffffffffffffffffffffffffffffffffffffffff8381831617835250505050620008e160201b60201c565b50565b60008151905060006a636f6e736f6c652e6c6f679050602083016000808483855afa5050505050565b828054620009189062000bad565b90600052602060002090601f0160209004810192826200093c576000855562000988565b82601f106200095757805160ff191683800117855562000988565b8280016001018555821562000988579182015b82811115620009875782518255916020019190600101906200096a565b5b50905062000997919062000a69565b5090565b828054828255906000526020600020908101928215620009ef579160200282015b82811115620009ee578251829080519060200190620009dd9291906200090a565b5091602001919060010190620009bc565b5b509050620009fe919062000a88565b5090565b82805482825590600052602060002090810192821562000a56579160200282015b8281111562000a5557825182908051906020019062000a449291906200090a565b509160200191906001019062000a23565b5b50905062000a65919062000a88565b5090565b5b8082111562000a8457600081600090555060010162000a6a565b5090565b5b8082111562000aac576000818162000aa2919062000ab0565b5060010162000a89565b5090565b50805462000abe9062000bad565b6000825580601f1062000ad2575062000af3565b601f01602090049060005260206000209081019062000af2919062000a69565b5b50565b600062000b038262000b5b565b62000b0f818562000b66565b935062000b2181856020860162000b77565b62000b2c8162000c12565b840191505092915050565b6000602082019050818103600083015262000b53818462000af6565b905092915050565b600081519050919050565b600082825260208201905092915050565b60005b8381101562000b9757808201518184015260208101905062000b7a565b8381111562000ba7576000848401525b50505050565b6000600282049050600182168062000bc657607f821691505b6020821081141562000bdd5762000bdc62000be3565b5b50919050565b7f4e487b7100000000000000000000000000000000000000000000000000000000600052602260045260246000fd5b6000601f19601f8301169050919050565b613a1e8062000c336000396000f3fe608060405234801561001057600080fd5b50600436106100f55760003560e01c80636352211e11610097578063b88d4fde11610066578063b88d4fde14610296578063c87b56dd146102b2578063de9d132f146102e2578063e985e9c5146102ec576100f5565b80636352211e146101fc57806370a082311461022c57806395d89b411461025c578063a22cb4651461027a576100f5565b8063095ea7b3116100d3578063095ea7b31461017857806323b872dd1461019457806342842e0e146101b05780634ebb5e73146101cc576100f5565b806301ffc9a7146100fa57806306fdde031461012a578063081812fc14610148575b600080fd5b610114600480360381019061010f9190612526565b61031c565b6040516101219190612bd9565b60405180910390f35b6101326103fe565b60405161013f9190612bf4565b60405180910390f35b610162600480360381019061015d9190612578565b610490565b60405161016f9190612b72565b60405180910390f35b610192600480360381019061018d9190612496565b610515565b005b6101ae60048036038101906101a99190612390565b61062d565b005b6101ca60048036038101906101c59190612390565b61068d565b005b6101e660048036038101906101e191906124d2565b6106ad565b6040516101f39190612bf4565b60405180910390f35b61021660048036038101906102119190612578565b61073c565b6040516102239190612b72565b60405180910390f35b6102466004803603810190610241919061232b565b6107ee565b6040516102539190612e54565b60405180910390f35b6102646108a6565b6040516102719190612bf4565b60405180910390f35b610294600480360381019061028f919061245a565b610938565b005b6102b060048036038101906102ab91906123df565b61094e565b005b6102cc60048036038101906102c79190612578565b6109b0565b6040516102d99190612bf4565b60405180910390f35b6102ea610b02565b005b61030660048036038101906103019190612354565b610f26565b6040516103139190612bd9565b60405180910390f35b60007f80ac58cd000000000000000000000000000000000000000000000000000000007bffffffffffffffffffffffffffffffffffffffffffffffffffffffff1916827bffffffffffffffffffffffffffffffffffffffffffffffffffffffff191614806103e757507f5b5e139f000000000000000000000000000000000000000000000000000000007bffffffffffffffffffffffffffffffffffffffffffffffffffffffff1916827bffffffffffffffffffffffffffffffffffffffffffffffffffffffff1916145b806103f757506103f682611053565b5b9050919050565b60606000805461040d90613145565b80601f016020809104026020016040519081016040528092919081815260200182805461043990613145565b80156104865780601f1061045b57610100808354040283529160200191610486565b820191906000526020600020905b81548152906001019060200180831161046957829003601f168201915b5050505050905090565b600061049b826110bd565b6104da576040517f08c379a00000000000000000000000000000000000000000000000000000000081526004016104d190612db4565b60405180910390fd5b6004600083815260200190815260200160002060009054906101000a900473ffffffffffffffffffffffffffffffffffffffff169050919050565b60006105208261073c565b90508073ffffffffffffffffffffffffffffffffffffffff168373ffffffffffffffffffffffffffffffffffffffff161415610591576040517f08c379a000000000000000000000000000000000000000000000000000000000815260040161058890612e14565b60405180910390fd5b8073ffffffffffffffffffffffffffffffffffffffff166105b0611129565b73ffffffffffffffffffffffffffffffffffffffff1614806105df57506105de816105d9611129565b610f26565b5b61061e576040517f08c379a000000000000000000000000000000000000000000000000000000000815260040161061590612cf4565b60405180910390fd5b6106288383611131565b505050565b61063e610638611129565b826111ea565b61067d576040517f08c379a000000000000000000000000000000000000000000000000000000000815260040161067490612e34565b60405180910390fd5b6106888383836112c8565b505050565b6106a88383836040518060200160405280600081525061094e565b505050565b606060006106e16106bd84611524565b6040516020016106cd9190612ad3565b6040516020818303038152906040526116d1565b90508351816106f091906131f1565b905083818151811061072b577f4e487b7100000000000000000000000000000000000000000000000000000000600052603260045260246000fd5b602002602001015191505092915050565b6000806002600084815260200190815260200160002060009054906101000a900473ffffffffffffffffffffffffffffffffffffffff169050600073ffffffffffffffffffffffffffffffffffffffff168173ffffffffffffffffffffffffffffffffffffffff1614156107e5576040517f08c379a00000000000000000000000000000000000000000000000000000000081526004016107dc90612d34565b60405180910390fd5b80915050919050565b60008073ffffffffffffffffffffffffffffffffffffffff168273ffffffffffffffffffffffffffffffffffffffff16141561085f576040517f08c379a000000000000000000000000000000000000000000000000000000000815260040161085690612d14565b60405180910390fd5b600360008373ffffffffffffffffffffffffffffffffffffffff1673ffffffffffffffffffffffffffffffffffffffff168152602001908152602001600020549050919050565b6060600180546108b590613145565b80601f01602080910402602001604051908101604052809291908181526020018280546108e190613145565b801561092e5780601f106109035761010080835404028352916020019161092e565b820191906000526020600020905b81548152906001019060200180831161091157829003601f168201915b5050505050905090565b61094a610943611129565b8383611704565b5050565b61095f610959611129565b836111ea565b61099e576040517f08c379a000000000000000000000000000000000000000000000000000000000815260040161099590612e34565b60405180910390fd5b6109aa84848484611871565b50505050565b60606109bb826110bd565b6109fa576040517f08c379a00000000000000000000000000000000000000000000000000000000081526004016109f190612d94565b60405180910390fd5b6000600660008481526020019081526020016000208054610a1a90613145565b80601f0160208091040260200160405190810160405280929190818152602001828054610a4690613145565b8015610a935780601f10610a6857610100808354040283529160200191610a93565b820191906000526020600020905b815481529060010190602001808311610a7657829003601f168201915b505050505090506000610aa46118cd565b9050600081511415610aba578192505050610afd565b600082511115610aef578082604051602001610ad7929190612a4f565b60405160208183030381529060405292505050610afd565b610af8846118e4565b925050505b919050565b6000610b0e600761198b565b90506000610bed6009805480602002602001604051908101604052809291908181526020016000905b82821015610be3578382906000526020600020018054610b5690613145565b80601f0160208091040260200160405190810160405280929190818152602001828054610b8290613145565b8015610bcf5780601f10610ba457610100808354040283529160200191610bcf565b820191906000526020600020905b815481529060010190602001808311610bb257829003601f168201915b505050505081526020019060010190610b37565b50505050836106ad565b90506000610ccc600a805480602002602001604051908101604052809291908181526020016000905b82821015610cc2578382906000526020600020018054610c3590613145565b80601f0160208091040260200160405190810160405280929190818152602001828054610c6190613145565b8015610cae5780601f10610c8357610100808354040283529160200191610cae565b820191906000526020600020905b815481529060010190602001808311610c9157829003601f168201915b505050505081526020019060010190610c16565b50505050846106ad565b90506000610dab600b805480602002602001604051908101604052809291908181526020016000905b82821015610da1578382906000526020600020018054610d1490613145565b80601f0160208091040260200160405190810160405280929190818152602001828054610d4090613145565b8015610d8d5780601f10610d6257610100808354040283529160200191610d8d565b820191906000526020600020905b815481529060010190602001808311610d7057829003601f168201915b505050505081526020019060010190610cf5565b50505050856106ad565b90506000838383604051602001610dc493929190612a73565b60405160208183030381529060405290506000600882604051602001610deb929190612aa4565b60405160208183030381529060405290506000610e3083610e0b84611999565b604051602001610e1c929190612af5565b604051602081830303815290604052611999565b9050600081604051602001610e459190612b50565b6040516020818303038152906040529050610e946040518060400160405280600481526020017f0a2d2d2d00000000000000000000000000000000000000000000000000000000815250610fba565b610e9d81610fba565b610edb6040518060400160405280600481526020017f0a2d2d2d00000000000000000000000000000000000000000000000000000000815250610fba565b610ee53389611b57565b610eef8882611b75565b610ef96007611be9565b610f1c604051806060016040528060258152602001613984602591398933611bff565b5050505050505050565b6000600560008473ffffffffffffffffffffffffffffffffffffffff1673ffffffffffffffffffffffffffffffffffffffff16815260200190815260200160002060008373ffffffffffffffffffffffffffffffffffffffff1673ffffffffffffffffffffffffffffffffffffffff16815260200190815260200160002060009054906101000a900460ff16905092915050565b61105081604051602401610fce9190612bf4565b6040516020818303038152906040527f41304fac000000000000000000000000000000000000000000000000000000007bffffffffffffffffffffffffffffffffffffffffffffffffffffffff19166020820180517bffffffffffffffffffffffffffffffffffffffffffffffffffffffff8381831617835250505050611c9e565b50565b60007f01ffc9a7000000000000000000000000000000000000000000000000000000007bffffffffffffffffffffffffffffffffffffffffffffffffffffffff1916827bffffffffffffffffffffffffffffffffffffffffffffffffffffffff1916149050919050565b60008073ffffffffffffffffffffffffffffffffffffffff166002600084815260200190815260200160002060009054906101000a900473ffffffffffffffffffffffffffffffffffffffff1673ffffffffffffffffffffffffffffffffffffffff1614159050919050565b600033905090565b816004600083815260200190815260200160002060006101000a81548173ffffffffffffffffffffffffffffffffffffffff021916908373ffffffffffffffffffffffffffffffffffffffff160217905550808273ffffffffffffffffffffffffffffffffffffffff166111a48361073c565b73ffffffffffffffffffffffffffffffffffffffff167f8c5be1e5ebec7d5bd14f71427d1e84f3dd0314c0f7b2291e5b200ac8c7c3b92560405160405180910390a45050565b60006111f5826110bd565b611234576040517f08c379a000000000000000000000000000000000000000000000000000000000815260040161122b90612cd4565b60405180910390fd5b600061123f8361073c565b90508073ffffffffffffffffffffffffffffffffffffffff168473ffffffffffffffffffffffffffffffffffffffff1614806112ae57508373ffffffffffffffffffffffffffffffffffffffff1661129684610490565b73ffffffffffffffffffffffffffffffffffffffff16145b806112bf57506112be8185610f26565b5b91505092915050565b8273ffffffffffffffffffffffffffffffffffffffff166112e88261073c565b73ffffffffffffffffffffffffffffffffffffffff161461133e576040517f08c379a000000000000000000000000000000000000000000000000000000000815260040161133590612dd4565b60405180910390fd5b600073ffffffffffffffffffffffffffffffffffffffff168273ffffffffffffffffffffffffffffffffffffffff1614156113ae576040517f08c379a00000000000000000000000000000000000000000000000000000000081526004016113a590612c94565b60405180910390fd5b6113b9838383611cc7565b6113c4600082611131565b6001600360008573ffffffffffffffffffffffffffffffffffffffff1673ffffffffffffffffffffffffffffffffffffffff1681526020019081526020016000206000828254611414919061305b565b925050819055506001600360008473ffffffffffffffffffffffffffffffffffffffff1673ffffffffffffffffffffffffffffffffffffffff168152602001908152602001600020600082825461146b9190612f7a565b92505081905550816002600083815260200190815260200160002060006101000a81548173ffffffffffffffffffffffffffffffffffffffff021916908373ffffffffffffffffffffffffffffffffffffffff160217905550808273ffffffffffffffffffffffffffffffffffffffff168473ffffffffffffffffffffffffffffffffffffffff167fddf252ad1be2c89b69c2b068fc378daa952ba7f163c4a11628f55a4df523b3ef60405160405180910390a4505050565b6060600082141561156c576040518060400160405280600181526020017f300000000000000000000000000000000000000000000000000000000000000081525090506116cc565b600082905060005b6000821461159e578080611587906131a8565b915050600a826115979190612fd0565b9150611574565b60008167ffffffffffffffff8111156115e0577f4e487b7100000000000000000000000000000000000000000000000000000000600052604160045260246000fd5b6040519080825280601f01601f1916602001820160405280156116125781602001600182028036833780820191505090505b5090505b600085146116c55760018261162b919061305b565b9150600a8561163a91906131f1565b60306116469190612f7a565b60f81b818381518110611682577f4e487b7100000000000000000000000000000000000000000000000000000000600052603260045260246000fd5b60200101907effffffffffffffffffffffffffffffffffffffffffffffffffffffffffffff1916908160001a905350600a856116be9190612fd0565b9450611616565b8093505050505b919050565b6000816040516020016116e49190612a38565b6040516020818303038152906040528051906020012060001c9050919050565b8173ffffffffffffffffffffffffffffffffffffffff168373ffffffffffffffffffffffffffffffffffffffff161415611773576040517f08c379a000000000000000000000000000000000000000000000000000000000815260040161176a90612cb4565b60405180910390fd5b80600560008573ffffffffffffffffffffffffffffffffffffffff1673ffffffffffffffffffffffffffffffffffffffff16815260200190815260200160002060008473ffffffffffffffffffffffffffffffffffffffff1673ffffffffffffffffffffffffffffffffffffffff16815260200190815260200160002060006101000a81548160ff0219169083151502179055508173ffffffffffffffffffffffffffffffffffffffff168373ffffffffffffffffffffffffffffffffffffffff167f17307eab39ab6107e8899845ad3d59bd9653f200f220920489ca2b5937696c31836040516118649190612bd9565b60405180910390a3505050565b61187c8484846112c8565b61188884848484611ccc565b6118c7576040517f08c379a00000000000000000000000000000000000000000000000000000000081526004016118be90612c54565b60405180910390fd5b50505050565b606060405180602001604052806000815250905090565b60606118ef826110bd565b61192e576040517f08c379a000000000000000000000000000000000000000000000000000000000815260040161192590612df4565b60405180910390fd5b60006119386118cd565b905060008151116119585760405180602001604052806000815250611983565b8061196284611524565b604051602001611973929190612a4f565b6040516020818303038152906040525b915050919050565b600081600001549050919050565b606060008251905060008114156119c25760405180602001604052806000815250915050611b52565b600060036002836119d39190612f7a565b6119dd9190612fd0565b60046119e99190613001565b905060006020826119fa9190612f7a565b67ffffffffffffffff811115611a39577f4e487b7100000000000000000000000000000000000000000000000000000000600052604160045260246000fd5b6040519080825280601f01601f191660200182016040528015611a6b5781602001600182028036833780820191505090505b50905060006040518060600160405280604081526020016139a9604091399050600181016020830160005b86811015611b0f5760038101905062ffffff818a015116603f8160121c168401518060081b905060ff603f83600c1c1686015116810190508060081b905060ff603f8360061c1686015116810190508060081b905060ff603f831686015116810190508060e01b90508084526004840193505050611a96565b506003860660018114611b295760028114611b3957611b44565b613d3d60f01b6002830352611b44565b603d60f81b60018303525b508484525050819450505050505b919050565b611b71828260405180602001604052806000815250611e63565b5050565b611b7e826110bd565b611bbd576040517f08c379a0000000000000000000000000000000000000000000000000000000008152600401611bb490612d54565b60405180910390fd5b80600660008481526020019081526020016000209080519060200190611be492919061209f565b505050565b6001816000016000828254019250508190555050565b611c99838383604051602401611c1793929190612c16565b6040516020818303038152906040527fe3849f79000000000000000000000000000000000000000000000000000000007bffffffffffffffffffffffffffffffffffffffffffffffffffffffff19166020820180517bffffffffffffffffffffffffffffffffffffffffffffffffffffffff8381831617835250505050611c9e565b505050565b60008151905060006a636f6e736f6c652e6c6f679050602083016000808483855afa5050505050565b505050565b6000611ced8473ffffffffffffffffffffffffffffffffffffffff16611ebe565b15611e56578373ffffffffffffffffffffffffffffffffffffffff1663150b7a02611d16611129565b8786866040518563ffffffff1660e01b8152600401611d389493929190612b8d565b602060405180830381600087803b158015611d5257600080fd5b505af1925050508015611d8357506040513d601f19601f82011682018060405250810190611d80919061254f565b60015b611e06573d8060008114611db3576040519150601f19603f3d011682016040523d82523d6000602084013e611db8565b606091505b50600081511415611dfe576040517f08c379a0000000000000000000000000000000000000000000000000000000008152600401611df590612c54565b60405180910390fd5b805181602001fd5b63150b7a0260e01b7bffffffffffffffffffffffffffffffffffffffffffffffffffffffff1916817bffffffffffffffffffffffffffffffffffffffffffffffffffffffff191614915050611e5b565b600190505b949350505050565b611e6d8383611ed1565b611e7a6000848484611ccc565b611eb9576040517f08c379a0000000000000000000000000000000000000000000000000000000008152600401611eb090612c54565b60405180910390fd5b505050565b600080823b905060008111915050919050565b600073ffffffffffffffffffffffffffffffffffffffff168273ffffffffffffffffffffffffffffffffffffffff161415611f41576040517f08c379a0000000000000000000000000000000000000000000000000000000008152600401611f3890612d74565b60405180910390fd5b611f4a816110bd565b15611f8a576040517f08c379a0000000000000000000000000000000000000000000000000000000008152600401611f8190612c74565b60405180910390fd5b611f9660008383611cc7565b6001600360008473ffffffffffffffffffffffffffffffffffffffff1673ffffffffffffffffffffffffffffffffffffffff1681526020019081526020016000206000828254611fe69190612f7a565b92505081905550816002600083815260200190815260200160002060006101000a81548173ffffffffffffffffffffffffffffffffffffffff021916908373ffffffffffffffffffffffffffffffffffffffff160217905550808273ffffffffffffffffffffffffffffffffffffffff16600073ffffffffffffffffffffffffffffffffffffffff167fddf252ad1be2c89b69c2b068fc378daa952ba7f163c4a11628f55a4df523b3ef60405160405180910390a45050565b8280546120ab90613145565b90600052602060002090601f0160209004810192826120cd5760008555612114565b82601f106120e657805160ff1916838001178555612114565b82800160010185558215612114579182015b828111156121135782518255916020019190600101906120f8565b5b5090506121219190612125565b5090565b5b8082111561213e576000816000905550600101612126565b5090565b600061215561215084612e94565b612e6f565b9050808382526020820190508285602086028201111561217457600080fd5b60005b858110156121be57813567ffffffffffffffff81111561219657600080fd5b8086016121a389826122ec565b85526020850194506020840193505050600181019050612177565b5050509392505050565b60006121db6121d684612ec0565b612e6f565b9050828152602081018484840111156121f357600080fd5b6121fe848285613103565b509392505050565b600061221961221484612ef1565b612e6f565b90508281526020810184848401111561223157600080fd5b61223c848285613103565b509392505050565b60008135905061225381613927565b92915050565b600082601f83011261226a57600080fd5b813561227a848260208601612142565b91505092915050565b6000813590506122928161393e565b92915050565b6000813590506122a781613955565b92915050565b6000815190506122bc81613955565b92915050565b600082601f8301126122d357600080fd5b81356122e38482602086016121c8565b91505092915050565b600082601f8301126122fd57600080fd5b813561230d848260208601612206565b91505092915050565b6000813590506123258161396c565b92915050565b60006020828403121561233d57600080fd5b600061234b84828501612244565b91505092915050565b6000806040838503121561236757600080fd5b600061237585828601612244565b925050602061238685828601612244565b9150509250929050565b6000806000606084860312156123a557600080fd5b60006123b386828701612244565b93505060206123c486828701612244565b92505060406123d586828701612316565b9150509250925092565b600080600080608085870312156123f557600080fd5b600061240387828801612244565b945050602061241487828801612244565b935050604061242587828801612316565b925050606085013567ffffffffffffffff81111561244257600080fd5b61244e878288016122c2565b91505092959194509250565b6000806040838503121561246d57600080fd5b600061247b85828601612244565b925050602061248c85828601612283565b9150509250929050565b600080604083850312156124a957600080fd5b60006124b785828601612244565b92505060206124c885828601612316565b9150509250929050565b600080604083850312156124e557600080fd5b600083013567ffffffffffffffff8111156124ff57600080fd5b61250b85828601612259565b925050602061251c85828601612316565b9150509250929050565b60006020828403121561253857600080fd5b600061254684828501612298565b91505092915050565b60006020828403121561256157600080fd5b600061256f848285016122ad565b91505092915050565b60006020828403121561258a57600080fd5b600061259884828501612316565b91505092915050565b6125aa8161308f565b82525050565b6125b9816130a1565b82525050565b60006125ca82612f37565b6125d48185612f4d565b93506125e4818560208601613112565b6125ed816132de565b840191505092915050565b600061260382612f42565b61260d8185612f5e565b935061261d818560208601613112565b612626816132de565b840191505092915050565b600061263c82612f42565b6126468185612f6f565b9350612656818560208601613112565b80840191505092915050565b6000815461266f81613145565b6126798186612f6f565b9450600182166000811461269457600181146126a5576126d8565b60ff198316865281860193506126d8565b6126ae85612f22565b60005b838110156126d0578154818901526001820191506020810190506126b1565b838801955050505b50505092915050565b60006126ee603283612f5e565b91506126f9826132ef565b604082019050919050565b6000612711600283612f6f565b915061271c8261333e565b600282019050919050565b6000612734601c83612f5e565b915061273f82613367565b602082019050919050565b6000612757602483612f5e565b915061276282613390565b604082019050919050565b600061277a601983612f5e565b9150612785826133df565b602082019050919050565b600061279d602c83612f5e565b91506127a882613408565b604082019050919050565b60006127c0600d83612f6f565b91506127cb82613457565b600d82019050919050565b60006127e3604483612f6f565b91506127ee82613480565b604482019050919050565b6000612806603883612f5e565b9150612811826134f5565b604082019050919050565b6000612829602a83612f5e565b915061283482613544565b604082019050919050565b600061284c602983612f5e565b915061285782613593565b604082019050919050565b600061286f602e83612f5e565b915061287a826135e2565b604082019050919050565b6000612892602483612f6f565b915061289d82613631565b602482019050919050565b60006128b5600c83612f6f565b91506128c082613680565b600c82019050919050565b60006128d8600283612f6f565b91506128e3826136a9565b600282019050919050565b60006128fb602083612f5e565b9150612906826136d2565b602082019050919050565b600061291e603183612f5e565b9150612929826136fb565b604082019050919050565b6000612941602c83612f5e565b915061294c8261374a565b604082019050919050565b6000612964602983612f5e565b915061296f82613799565b604082019050919050565b6000612987602f83612f5e565b9150612992826137e8565b604082019050919050565b60006129aa600a83612f6f565b91506129b582613837565b600a82019050919050565b60006129cd602183612f5e565b91506129d882613860565b604082019050919050565b60006129f0601d83612f6f565b91506129fb826138af565b601d82019050919050565b6000612a13603183612f5e565b9150612a1e826138d8565b604082019050919050565b612a32816130f9565b82525050565b6000612a448284612631565b915081905092915050565b6000612a5b8285612631565b9150612a678284612631565b91508190509392505050565b6000612a7f8286612631565b9150612a8b8285612631565b9150612a978284612631565b9150819050949350505050565b6000612ab08285612662565b9150612abc8284612631565b9150612ac7826127b3565b91508190509392505050565b6000612ade826128a8565b9150612aea8284612631565b915081905092915050565b6000612b008261299d565b9150612b0c8285612631565b9150612b1782612704565b9150612b22826127d6565b9150612b2d82612885565b9150612b398284612631565b9150612b44826128cb565b91508190509392505050565b6000612b5b826129e3565b9150612b678284612631565b915081905092915050565b6000602082019050612b8760008301846125a1565b92915050565b6000608082019050612ba260008301876125a1565b612baf60208301866125a1565b612bbc6040830185612a29565b8181036060830152612bce81846125bf565b905095945050505050565b6000602082019050612bee60008301846125b0565b92915050565b60006020820190508181036000830152612c0e81846125f8565b905092915050565b60006060820190508181036000830152612c3081866125f8565b9050612c3f6020830185612a29565b612c4c60408301846125a1565b949350505050565b60006020820190508181036000830152612c6d816126e1565b9050919050565b60006020820190508181036000830152612c8d81612727565b9050919050565b60006020820190508181036000830152612cad8161274a565b9050919050565b60006020820190508181036000830152612ccd8161276d565b9050919050565b60006020820190508181036000830152612ced81612790565b9050919050565b60006020820190508181036000830152612d0d816127f9565b9050919050565b60006020820190508181036000830152612d2d8161281c565b9050919050565b60006020820190508181036000830152612d4d8161283f565b9050919050565b60006020820190508181036000830152612d6d81612862565b9050919050565b60006020820190508181036000830152612d8d816128ee565b9050919050565b60006020820190508181036000830152612dad81612911565b9050919050565b60006020820190508181036000830152612dcd81612934565b9050919050565b60006020820190508181036000830152612ded81612957565b9050919050565b60006020820190508181036000830152612e0d8161297a565b9050919050565b60006020820190508181036000830152612e2d816129c0565b9050919050565b60006020820190508181036000830152612e4d81612a06565b9050919050565b6000602082019050612e696000830184612a29565b92915050565b6000612e79612e8a565b9050612e858282613177565b919050565b6000604051905090565b600067ffffffffffffffff821115612eaf57612eae6132af565b5b602082029050602081019050919050565b600067ffffffffffffffff821115612edb57612eda6132af565b5b612ee4826132de565b9050602081019050919050565b600067ffffffffffffffff821115612f0c57612f0b6132af565b5b612f15826132de565b9050602081019050919050565b60008190508160005260206000209050919050565b600081519050919050565b600081519050919050565b600082825260208201905092915050565b600082825260208201905092915050565b600081905092915050565b6000612f85826130f9565b9150612f90836130f9565b9250827fffffffffffffffffffffffffffffffffffffffffffffffffffffffffffffffff03821115612fc557612fc4613222565b5b828201905092915050565b6000612fdb826130f9565b9150612fe6836130f9565b925082612ff657612ff5613251565b5b828204905092915050565b600061300c826130f9565b9150613017836130f9565b9250817fffffffffffffffffffffffffffffffffffffffffffffffffffffffffffffffff04831182151516156130505761304f613222565b5b828202905092915050565b6000613066826130f9565b9150613071836130f9565b92508282101561308457613083613222565b5b828203905092915050565b600061309a826130d9565b9050919050565b60008115159050919050565b60007fffffffff0000000000000000000000000000000000000000000000000000000082169050919050565b600073ffffffffffffffffffffffffffffffffffffffff82169050919050565b6000819050919050565b82818337600083830152505050565b60005b83811015613130578082015181840152602081019050613115565b8381111561313f576000848401525b50505050565b6000600282049050600182168061315d57607f821691505b6020821081141561317157613170613280565b5b50919050565b613180826132de565b810181811067ffffffffffffffff8211171561319f5761319e6132af565b5b80604052505050565b60006131b3826130f9565b91507fffffffffffffffffffffffffffffffffffffffffffffffffffffffffffffffff8214156131e6576131e5613222565b5b600182019050919050565b60006131fc826130f9565b9150613207836130f9565b92508261321757613216613251565b5b828206905092915050565b7f4e487b7100000000000000000000000000000000000000000000000000000000600052601160045260246000fd5b7f4e487b7100000000000000000000000000000000000000000000000000000000600052601260045260246000fd5b7f4e487b7100000000000000000000000000000000000000000000000000000000600052602260045260246000fd5b7f4e487b7100000000000000000000000000000000000000000000000000000000600052604160045260246000fd5b6000601f19601f8301169050919050565b7f4552433732313a207472616e7366657220746f206e6f6e20455243373231526560008201527f63656976657220696d706c656d656e7465720000000000000000000000000000602082015250565b7f222c000000000000000000000000000000000000000000000000000000000000600082015250565b7f4552433732313a20746f6b656e20616c7265616479206d696e74656400000000600082015250565b7f4552433732313a207472616e7366657220746f20746865207a65726f2061646460008201527f7265737300000000000000000000000000000000000000000000000000000000602082015250565b7f4552433732313a20617070726f766520746f2063616c6c657200000000000000600082015250565b7f4552433732313a206f70657261746f7220717565727920666f72206e6f6e657860008201527f697374656e7420746f6b656e0000000000000000000000000000000000000000602082015250565b7f3c2f746578743e3c2f7376673e00000000000000000000000000000000000000600082015250565b7f226465736372697074696f6e223a20224120686967686c79207363616c61626c60008201527f6520636f6c6c656374696f6e73206f662072616e646f6d20776f726473206e6660208201527f742e222c00000000000000000000000000000000000000000000000000000000604082015250565b7f4552433732313a20617070726f76652063616c6c6572206973206e6f74206f7760008201527f6e6572206e6f7220617070726f76656420666f7220616c6c0000000000000000602082015250565b7f4552433732313a2062616c616e636520717565727920666f7220746865207a6560008201527f726f206164647265737300000000000000000000000000000000000000000000602082015250565b7f4552433732313a206f776e657220717565727920666f72206e6f6e657869737460008201527f656e7420746f6b656e0000000000000000000000000000000000000000000000602082015250565b7f45524337323155524953746f726167653a2055524920736574206f66206e6f6e60008201527f6578697374656e7420746f6b656e000000000000000000000000000000000000602082015250565b7f22696d616765223a2022646174613a696d6167652f7376672b786d6c3b62617360008201527f6536342c00000000000000000000000000000000000000000000000000000000602082015250565b7f574f5244494e47534c4953540000000000000000000000000000000000000000600082015250565b7f227d000000000000000000000000000000000000000000000000000000000000600082015250565b7f4552433732313a206d696e7420746f20746865207a65726f2061646472657373600082015250565b7f45524337323155524953746f726167653a2055524920717565727920666f722060008201527f6e6f6e6578697374656e7420746f6b656e000000000000000000000000000000602082015250565b7f4552433732313a20617070726f76656420717565727920666f72206e6f6e657860008201527f697374656e7420746f6b656e0000000000000000000000000000000000000000602082015250565b7f4552433732313a207472616e73666572206f6620746f6b656e2074686174206960008201527f73206e6f74206f776e0000000000000000000000000000000000000000000000602082015250565b7f4552433732314d657461646174613a2055524920717565727920666f72206e6f60008201527f6e6578697374656e7420746f6b656e0000000000000000000000000000000000602082015250565b7f7b226e616d65223a202200000000000000000000000000000000000000000000600082015250565b7f4552433732313a20617070726f76616c20746f2063757272656e74206f776e6560008201527f7200000000000000000000000000000000000000000000000000000000000000602082015250565b7f646174613a6170706c69636174696f6e2f6a736f6e3b6261736536342c000000600082015250565b7f4552433732313a207472616e736665722063616c6c6572206973206e6f74206f60008201527f776e6572206e6f7220617070726f766564000000000000000000000000000000602082015250565b6139308161308f565b811461393b57600080fd5b50565b613947816130a1565b811461395257600080fd5b50565b61395e816130ad565b811461396957600080fd5b50565b613975816130f9565b811461398057600080fd5b5056fe416e204e465420772f20494420257320686173206265656e206d696e74656420746f2025734142434445464748494a4b4c4d4e4f505152535455565758595a6162636465666768696a6b6c6d6e6f707172737475767778797a303132333435363738392b2fa26469706673582212203843dff0abd73ca11cd467ea406a5f9d98cb78e9f44783853ae96c36a669832e64736f6c634300080400333c73766720786d6c6e733d27687474703a2f2f7777772e77332e6f72672f323030302f73766727207072657365727665417370656374526174696f3d27784d696e594d696e206d656574272076696577426f783d273020302033353020333530273e3c7374796c653e2e62617365207b2066696c6c3a2077686974653b20666f6e742d66616d696c793a2073657269663b20666f6e742d73697a653a20323470783b207d3c2f7374796c653e3c726563742077696474683d273130302527206865696768743d2731303025272066696c6c3d27626c61636b27202f3e3c7465787420783d273530252720793d273530252720636c6173733d27626173652720646f6d696e616e742d626173656c696e653d276d6964646c652720746578742d616e63686f723d276d6964646c65273e",
    "linkReferences": {},
    "deployedLinkReferences": {}
}